{
  "contractName": "MultiSignWallet",
  "abi": [
    {
      "inputs": [
        {
          "internalType": "address[]",
          "name": "_owners",
          "type": "address[]"
        },
        {
          "internalType": "uint256",
          "name": "_limit",
          "type": "uint256"
        }
      ],
      "stateMutability": "nonpayable",
      "type": "constructor"
    },
    {
      "anonymous": false,
      "inputs": [
        {
          "indexed": false,
          "internalType": "uint256",
          "name": "_id",
          "type": "uint256"
        },
        {
          "indexed": false,
          "internalType": "uint256",
          "name": "_approvals",
          "type": "uint256"
        },
        {
          "indexed": false,
          "internalType": "address",
          "name": "_approver",
          "type": "address"
        }
      ],
      "name": "ApprovalReceived",
      "type": "event"
    },
    {
      "anonymous": false,
      "inputs": [
        {
          "indexed": false,
          "internalType": "uint256",
          "name": "_id",
          "type": "uint256"
        },
        {
          "indexed": false,
          "internalType": "uint256",
          "name": "_amount",
          "type": "uint256"
        },
        {
          "indexed": false,
          "internalType": "address",
          "name": "_from",
          "type": "address"
        },
        {
          "indexed": false,
          "internalType": "address",
          "name": "_to",
          "type": "address"
        }
      ],
      "name": "RequestCreated",
      "type": "event"
    },
    {
      "anonymous": false,
      "inputs": [
        {
          "indexed": false,
          "internalType": "uint256",
          "name": "_id",
          "type": "uint256"
        }
      ],
      "name": "TransferFinished",
      "type": "event"
    },
    {
      "inputs": [
        {
          "internalType": "uint256",
          "name": "",
          "type": "uint256"
        }
      ],
      "name": "requestList",
      "outputs": [
        {
          "internalType": "uint256",
          "name": "",
          "type": "uint256"
        }
      ],
      "stateMutability": "view",
      "type": "function"
    },
    {
      "inputs": [
        {
          "internalType": "uint256",
          "name": "",
          "type": "uint256"
        }
      ],
      "name": "requests",
      "outputs": [
        {
          "internalType": "uint256",
          "name": "requestId",
          "type": "uint256"
        },
        {
          "internalType": "uint256",
          "name": "amount",
          "type": "uint256"
        },
        {
          "internalType": "address",
          "name": "from",
          "type": "address"
        },
        {
          "internalType": "address payable",
          "name": "to",
          "type": "address"
        },
        {
          "internalType": "uint256",
          "name": "approvals",
          "type": "uint256"
        },
        {
          "internalType": "bool",
          "name": "done",
          "type": "bool"
        }
      ],
      "stateMutability": "view",
      "type": "function"
    },
    {
      "inputs": [],
      "name": "deposit",
      "outputs": [],
      "stateMutability": "payable",
      "type": "function"
    },
    {
      "inputs": [
        {
          "internalType": "uint256",
          "name": "_amount",
          "type": "uint256"
        },
        {
          "internalType": "address payable",
          "name": "_to",
          "type": "address"
        }
      ],
      "name": "requestTransfer",
      "outputs": [],
      "stateMutability": "nonpayable",
      "type": "function"
    },
    {
      "inputs": [
        {
          "internalType": "uint256",
          "name": "_indexRequest",
          "type": "uint256"
        }
      ],
      "name": "approveRequest",
      "outputs": [],
      "stateMutability": "nonpayable",
      "type": "function"
    },
    {
      "inputs": [
        {
          "internalType": "uint256",
          "name": "_indexRequest",
          "type": "uint256"
        }
      ],
      "name": "cancelRequest",
      "outputs": [],
      "stateMutability": "nonpayable",
      "type": "function"
    },
    {
      "inputs": [
        {
          "internalType": "uint256",
          "name": "_indexRequest",
          "type": "uint256"
        }
      ],
      "name": "getRequest",
      "outputs": [
        {
          "components": [
            {
              "internalType": "uint256",
              "name": "requestId",
              "type": "uint256"
            },
            {
              "internalType": "uint256",
              "name": "amount",
              "type": "uint256"
            },
            {
              "internalType": "address",
              "name": "from",
              "type": "address"
            },
            {
              "internalType": "address payable",
              "name": "to",
              "type": "address"
            },
            {
              "internalType": "uint256",
              "name": "approvals",
              "type": "uint256"
            },
            {
              "internalType": "bool",
              "name": "done",
              "type": "bool"
            }
          ],
          "internalType": "struct MultiSignWallet.Request",
          "name": "",
          "type": "tuple"
        }
      ],
      "stateMutability": "view",
      "type": "function"
    },
    {
      "inputs": [],
      "name": "getBalance",
      "outputs": [
        {
          "internalType": "uint256",
          "name": "",
          "type": "uint256"
        }
      ],
      "stateMutability": "view",
      "type": "function"
    }
  ],
  "bytecode": "0x60806040523480156200001157600080fd5b5060405162002064380380620020648339818101604052810190620000379190620001dd565b806000819055508160019080519060200190620000569291906200005f565b50505062000377565b828054828255906000526020600020908101928215620000db579160200282015b82811115620000da5782518260006101000a81548173ffffffffffffffffffffffffffffffffffffffff021916908373ffffffffffffffffffffffffffffffffffffffff1602179055509160200191906001019062000080565b5b509050620000ea9190620000ee565b5090565b5b8082111562000109576000816000905550600101620000ef565b5090565b6000620001246200011e8462000260565b62000237565b905080838252602082019050828560208602820111156200014457600080fd5b60005b858110156200017857816200015d888262000182565b84526020840193506020830192505060018101905062000147565b5050509392505050565b600081519050620001938162000343565b92915050565b600082601f830112620001ab57600080fd5b8151620001bd8482602086016200010d565b91505092915050565b600081519050620001d7816200035d565b92915050565b60008060408385031215620001f157600080fd5b600083015167ffffffffffffffff8111156200020c57600080fd5b6200021a8582860162000199565b92505060206200022d85828601620001c6565b9150509250929050565b60006200024362000256565b9050620002518282620002cd565b919050565b6000604051905090565b600067ffffffffffffffff8211156200027e576200027d62000303565b5b602082029050602081019050919050565b60006200029c82620002a3565b9050919050565b600073ffffffffffffffffffffffffffffffffffffffff82169050919050565b6000819050919050565b620002d88262000332565b810181811067ffffffffffffffff82111715620002fa57620002f962000303565b5b80604052505050565b7f4e487b7100000000000000000000000000000000000000000000000000000000600052604160045260246000fd5b6000601f19601f8301169050919050565b6200034e816200028f565b81146200035a57600080fd5b50565b6200036881620002c3565b81146200037457600080fd5b50565b611cdd80620003876000396000f3fe60806040526004361061007b5760003560e01c806381d12c581161004e57806381d12c581461013a578063c58343ef1461017c578063d0e30db0146101b9578063d7d1bbdb146101c35761007b565b806302e9d43b1461008057806312065fe0146100bd5780633015394c146100e85780634034423214610111575b600080fd5b34801561008c57600080fd5b506100a760048036038101906100a29190611498565b6101ec565b6040516100b4919061183f565b60405180910390f35b3480156100c957600080fd5b506100d2610210565b6040516100df919061183f565b60405180910390f35b3480156100f457600080fd5b5061010f600480360381019061010a9190611498565b610257565b005b34801561011d57600080fd5b50610138600480360381019061013391906114c1565b6106c9565b005b34801561014657600080fd5b50610161600480360381019061015c9190611498565b610abe565b604051610173969594939291906118d6565b60405180910390f35b34801561018857600080fd5b506101a3600480360381019061019e9190611498565b610b47565b6040516101b09190611824565b60405180910390f35b6101c1610c59565b005b3480156101cf57600080fd5b506101ea60048036038101906101e59190611498565b610cf0565b005b600281815481106101fc57600080fd5b906000526020600020016000915090505481565b6000600460003373ffffffffffffffffffffffffffffffffffffffff1673ffffffffffffffffffffffffffffffffffffffff16815260200190815260200160002054905090565b600015156005600083815260200190815260200160002060050160009054906101000a900460ff161515146102c1576040517f08c379a00000000000000000000000000000000000000000000000000000000081526004016102b8906117a4565b60405180910390fd5b3373ffffffffffffffffffffffffffffffffffffffff166005600083815260200190815260200160002060020160009054906101000a900473ffffffffffffffffffffffffffffffffffffffff1673ffffffffffffffffffffffffffffffffffffffff1614610365576040517f08c379a000000000000000000000000000000000000000000000000000000000815260040161035c90611764565b60405180910390fd5b60006002600160028054905061037b91906119b4565b815481106103b2577f4e487b7100000000000000000000000000000000000000000000000000000000600052603260045260246000fd5b9060005260206000200154905080600283815481106103fa577f4e487b7100000000000000000000000000000000000000000000000000000000600052603260045260246000fd5b90600052602060002001819055508160028281548110610443577f4e487b7100000000000000000000000000000000000000000000000000000000600052603260045260246000fd5b90600052602060002001819055506104ef6005600083815260200190815260200160002060010154600460006005600086815260200190815260200160002060020160009054906101000a900473ffffffffffffffffffffffffffffffffffffffff1673ffffffffffffffffffffffffffffffffffffffff1673ffffffffffffffffffffffffffffffffffffffff168152602001908152602001600020546112fe90919063ffffffff16565b600460006005600085815260200190815260200160002060020160009054906101000a900473ffffffffffffffffffffffffffffffffffffffff1673ffffffffffffffffffffffffffffffffffffffff1673ffffffffffffffffffffffffffffffffffffffff168152602001908152602001600020819055503373ffffffffffffffffffffffffffffffffffffffff1660056000838152602001908152602001600020600101546040516105a29061172d565b60006040518083038185875af1925050503d80600081146105df576040519150601f19603f3d011682016040523d82523d6000602084013e6105e4565b606091505b5050506005600082815260200190815260200160002060008082016000905560018201600090556002820160006101000a81549073ffffffffffffffffffffffffffffffffffffffff02191690556003820160006101000a81549073ffffffffffffffffffffffffffffffffffffffff021916905560048201600090556005820160006101000a81549060ff0219169055505060028054806106af577f4e487b7100000000000000000000000000000000000000000000000000000000600052603160045260246000fd5b600190038181906000526020600020016000905590555050565b6000805b60018054905081101561078a573373ffffffffffffffffffffffffffffffffffffffff166001828154811061072b577f4e487b7100000000000000000000000000000000000000000000000000000000600052603260045260246000fd5b9060005260206000200160009054906101000a900473ffffffffffffffffffffffffffffffffffffffff1673ffffffffffffffffffffffffffffffffffffffff16141561077757600191505b808061078290611aab565b9150506106cd565b5060011515811515146107d2576040517f08c379a00000000000000000000000000000000000000000000000000000000081526004016107c990611804565b60405180910390fd5b82600460003373ffffffffffffffffffffffffffffffffffffffff1673ffffffffffffffffffffffffffffffffffffffff168152602001908152602001600020541015610854576040517f08c379a000000000000000000000000000000000000000000000000000000000815260040161084b906117c4565b60405180910390fd5b6108a683600460003373ffffffffffffffffffffffffffffffffffffffff1673ffffffffffffffffffffffffffffffffffffffff1681526020019081526020016000205461135c90919063ffffffff16565b600460003373ffffffffffffffffffffffffffffffffffffffff1673ffffffffffffffffffffffffffffffffffffffff168152602001908152602001600020819055507f8222a676c9e4a90ebb7b3202df895cf18ab8b7c9a880aa100420c533e86059776002805490508433856040516109239493929190611891565b60405180910390a16002808054905090806001815401808255809150506001900390600052602060002001600090919091909150556040518060c00160405280600160028054905061097591906119b4565b81526020018481526020013373ffffffffffffffffffffffffffffffffffffffff1681526020018373ffffffffffffffffffffffffffffffffffffffff16815260200160008152602001600015158152506005600060016002805490506109dc91906119b4565b8152602001908152602001600020600082015181600001556020820151816001015560408201518160020160006101000a81548173ffffffffffffffffffffffffffffffffffffffff021916908373ffffffffffffffffffffffffffffffffffffffff16021790555060608201518160030160006101000a81548173ffffffffffffffffffffffffffffffffffffffff021916908373ffffffffffffffffffffffffffffffffffffffff1602179055506080820151816004015560a08201518160050160006101000a81548160ff021916908315150217905550905050505050565b60056020528060005260406000206000915090508060000154908060010154908060020160009054906101000a900473ffffffffffffffffffffffffffffffffffffffff16908060030160009054906101000a900473ffffffffffffffffffffffffffffffffffffffff16908060040154908060050160009054906101000a900460ff16905086565b610b4f61140a565b600560008381526020019081526020016000206040518060c001604052908160008201548152602001600182015481526020016002820160009054906101000a900473ffffffffffffffffffffffffffffffffffffffff1673ffffffffffffffffffffffffffffffffffffffff1673ffffffffffffffffffffffffffffffffffffffff1681526020016003820160009054906101000a900473ffffffffffffffffffffffffffffffffffffffff1673ffffffffffffffffffffffffffffffffffffffff1673ffffffffffffffffffffffffffffffffffffffff168152602001600482015481526020016005820160009054906101000a900460ff1615151515815250509050919050565b610cab34600460003373ffffffffffffffffffffffffffffffffffffffff1673ffffffffffffffffffffffffffffffffffffffff168152602001908152602001600020546112fe90919063ffffffff16565b600460003373ffffffffffffffffffffffffffffffffffffffff1673ffffffffffffffffffffffffffffffffffffffff16815260200190815260200160002081905550565b6000805b600180549050811015610db1573373ffffffffffffffffffffffffffffffffffffffff1660018281548110610d52577f4e487b7100000000000000000000000000000000000000000000000000000000600052603260045260246000fd5b9060005260206000200160009054906101000a900473ffffffffffffffffffffffffffffffffffffffff1673ffffffffffffffffffffffffffffffffffffffff161415610d9e57600191505b8080610da990611aab565b915050610cf4565b506001151581151514610df9576040517f08c379a0000000000000000000000000000000000000000000000000000000008152600401610df090611804565b60405180910390fd5b60001515600360003373ffffffffffffffffffffffffffffffffffffffff1673ffffffffffffffffffffffffffffffffffffffff168152602001908152602001600020600084815260200190815260200160002060009054906101000a900460ff16151514610e9d576040517f08c379a0000000000000000000000000000000000000000000000000000000008152600401610e94906117e4565b60405180910390fd5b600015156005600084815260200190815260200160002060050160009054906101000a900460ff16151514610f07576040517f08c379a0000000000000000000000000000000000000000000000000000000008152600401610efe906117a4565b60405180910390fd5b6000600560008481526020019081526020016000206040518060c001604052908160008201548152602001600182015481526020016002820160009054906101000a900473ffffffffffffffffffffffffffffffffffffffff1673ffffffffffffffffffffffffffffffffffffffff1673ffffffffffffffffffffffffffffffffffffffff1681526020016003820160009054906101000a900473ffffffffffffffffffffffffffffffffffffffff1673ffffffffffffffffffffffffffffffffffffffff1673ffffffffffffffffffffffffffffffffffffffff168152602001600482015481526020016005820160009054906101000a900460ff16151515158152505090507ffec9d12d15ee8c8b836a58347cb0d4980db38411bcd0b83662cee48fb20b6dee838260800151336040516110459392919061185a565b60405180910390a1600181608001818151611060919061195e565b915081815250506001600360003373ffffffffffffffffffffffffffffffffffffffff1673ffffffffffffffffffffffffffffffffffffffff168152602001908152602001600020600085815260200190815260200160002060006101000a81548160ff0219169083151502179055506000548160800151106112f95760018160a0019015159081151581525050611148816020015160046000846060015173ffffffffffffffffffffffffffffffffffffffff1673ffffffffffffffffffffffffffffffffffffffff168152602001908152602001600020546112fe90919063ffffffff16565b60046000836060015173ffffffffffffffffffffffffffffffffffffffff1673ffffffffffffffffffffffffffffffffffffffff168152602001908152602001600020819055506000816060015173ffffffffffffffffffffffffffffffffffffffff1682602001516040516111bd9061172d565b60006040518083038185875af1925050503d80600081146111fa576040519150601f19603f3d011682016040523d82523d6000602084013e6111ff565b606091505b50509050806112bf5760008260a0019015159081151581525050611273826020015160046000856060015173ffffffffffffffffffffffffffffffffffffffff1673ffffffffffffffffffffffffffffffffffffffff1681526020019081526020016000205461135c90919063ffffffff16565b60046000846060015173ffffffffffffffffffffffffffffffffffffffff1673ffffffffffffffffffffffffffffffffffffffff168152602001908152602001600020819055506112f7565b7f4b637b6d28467669b34f12bb8d197dde59e3ed19d43217b6cec7eb050f76a501846040516112ee919061183f565b60405180910390a15b505b505050565b600080828461130d919061195e565b905083811015611352576040517f08c379a000000000000000000000000000000000000000000000000000000000815260040161134990611784565b60405180910390fd5b8091505092915050565b600061139e83836040518060400160405280601e81526020017f536166654d6174683a207375627472616374696f6e206f766572666c6f7700008152506113a6565b905092915050565b60008383111582906113ee576040517f08c379a00000000000000000000000000000000000000000000000000000000081526004016113e59190611742565b60405180910390fd5b50600083856113fd91906119b4565b9050809150509392505050565b6040518060c001604052806000815260200160008152602001600073ffffffffffffffffffffffffffffffffffffffff168152602001600073ffffffffffffffffffffffffffffffffffffffff168152602001600081526020016000151581525090565b60008135905061147d81611c79565b92915050565b60008135905061149281611c90565b92915050565b6000602082840312156114aa57600080fd5b60006114b884828501611483565b91505092915050565b600080604083850312156114d457600080fd5b60006114e285828601611483565b92505060206114f38582860161146e565b9150509250929050565b61150681611a42565b82525050565b611515816119fa565b82525050565b611524816119fa565b82525050565b611533816119e8565b82525050565b611542816119e8565b82525050565b61155181611a0c565b82525050565b61156081611a0c565b82525050565b600061157182611937565b61157b818561194d565b935061158b818560208601611a78565b61159481611b23565b840191505092915050565b60006115ac60258361194d565b91506115b782611b34565b604082019050919050565b60006115cf601b8361194d565b91506115da82611b83565b602082019050919050565b60006115f2601c8361194d565b91506115fd82611bac565b602082019050919050565b600061161560168361194d565b915061162082611bd5565b602082019050919050565b6000611638600083611942565b915061164382611bfe565b600082019050919050565b600061165b60228361194d565b915061166682611c01565b604082019050919050565b600061167e60148361194d565b915061168982611c50565b602082019050919050565b60c0820160008201516116aa600085018261170f565b5060208201516116bd602085018261170f565b5060408201516116d0604085018261152a565b5060608201516116e3606085018261150c565b5060808201516116f6608085018261170f565b5060a082015161170960a0850182611548565b50505050565b61171881611a38565b82525050565b61172781611a38565b82525050565b60006117388261162b565b9150819050919050565b6000602082019050818103600083015261175c8184611566565b905092915050565b6000602082019050818103600083015261177d8161159f565b9050919050565b6000602082019050818103600083015261179d816115c2565b9050919050565b600060208201905081810360008301526117bd816115e5565b9050919050565b600060208201905081810360008301526117dd81611608565b9050919050565b600060208201905081810360008301526117fd8161164e565b9050919050565b6000602082019050818103600083015261181d81611671565b9050919050565b600060c0820190506118396000830184611694565b92915050565b6000602082019050611854600083018461171e565b92915050565b600060608201905061186f600083018661171e565b61187c602083018561171e565b6118896040830184611539565b949350505050565b60006080820190506118a6600083018761171e565b6118b3602083018661171e565b6118c06040830185611539565b6118cd60608301846114fd565b95945050505050565b600060c0820190506118eb600083018961171e565b6118f8602083018861171e565b6119056040830187611539565b611912606083018661151b565b61191f608083018561171e565b61192c60a0830184611557565b979650505050505050565b600081519050919050565b600081905092915050565b600082825260208201905092915050565b600061196982611a38565b915061197483611a38565b9250827fffffffffffffffffffffffffffffffffffffffffffffffffffffffffffffffff038211156119a9576119a8611af4565b5b828201905092915050565b60006119bf82611a38565b91506119ca83611a38565b9250828210156119dd576119dc611af4565b5b828203905092915050565b60006119f382611a18565b9050919050565b6000611a0582611a18565b9050919050565b60008115159050919050565b600073ffffffffffffffffffffffffffffffffffffffff82169050919050565b6000819050919050565b6000611a4d82611a54565b9050919050565b6000611a5f82611a66565b9050919050565b6000611a7182611a18565b9050919050565b60005b83811015611a96578082015181840152602081019050611a7b565b83811115611aa5576000848401525b50505050565b6000611ab682611a38565b91507fffffffffffffffffffffffffffffffffffffffffffffffffffffffffffffffff821415611ae957611ae8611af4565b5b600182019050919050565b7f4e487b7100000000000000000000000000000000000000000000000000000000600052601160045260246000fd5b6000601f19601f8301169050919050565b7f596f75277265206e6f74207468652073656e646572206f66207468652072657160008201527f7565737421000000000000000000000000000000000000000000000000000000602082015250565b7f536166654d6174683a206164646974696f6e206f766572666c6f770000000000600082015250565b7f546865207265717565737420697320616c726561647920646f6e652100000000600082015250565b7f42616c616e6365206e6f742073756666696369656e7400000000000000000000600082015250565b50565b7f596f7520616c726561647920617070726f76656420746869732072657175657360008201527f7421000000000000000000000000000000000000000000000000000000000000602082015250565b7f596f75277265206e6f7420616e206f776e657221000000000000000000000000600082015250565b611c82816119fa565b8114611c8d57600080fd5b50565b611c9981611a38565b8114611ca457600080fd5b5056fea2646970667358221220c79960f7b428c6c1cd78713735c336ecc6b662a2e796957d9d5368b61b5147a064736f6c63430008030033",
  "immutableReferences": {},
  "source": "pragma solidity 0.8.3;\npragma abicoder v2;\n\nimport \"./Safemath.sol\";\n\ncontract MultiSignWallet {\n\n    using SafeMath for uint;\n    \n    struct Request {\n        uint requestId;\n        uint amount;\n        address from;\n        address payable to;\n        uint approvals;\n        bool done;\n    }\n    \n    uint approvalLimit;\n    address[] owners;\n    uint[] public requestList;\n     \n    modifier onlyOwners() {\n        bool owner = false;\n        for(uint i=0; i < owners.length;i++) {\n            if(owners[i] == msg.sender) {\n                owner = true;\n            }\n        }\n        require(owner == true, \"You're not an owner!\");\n        _;\n    }\n    \n    event RequestCreated(uint _id, uint _amount, address _from, address _to);\n    event ApprovalReceived(uint _id, uint _approvals, address _approver);\n    event TransferFinished(uint _id);\n\n    mapping (address => mapping(uint => bool)) ownersApprovals;\n    mapping(address => uint) balance;\n    mapping(uint => Request) public requests;\n    \n    constructor(address[] memory _owners, uint _limit) {\n        approvalLimit = _limit;\n        owners = _owners;\n    }\n    \n    function deposit() public payable {\n         balance[msg.sender] = balance[msg.sender].add(msg.value);\n    }\n    \n    function requestTransfer(uint _amount, address payable _to) external onlyOwners {\n        require(balance[msg.sender] >= _amount, \"Balance not sufficient\");\n        \n        balance[msg.sender] = balance[msg.sender].sub(_amount);\n        \n        emit RequestCreated(requestList.length, _amount, msg.sender, _to);\n        \n        requestList.push(requestList.length);\n        \n        requests[requestList.length-1] = (Request(requestList.length-1, _amount, msg.sender, _to, 0, false));\n        \n    }\n    \n    function approveRequest(uint _indexRequest) external onlyOwners {\n        require(ownersApprovals[msg.sender][_indexRequest] == false, \"You already approved this request!\");\n        require(requests[_indexRequest].done == false, \"The request is already done!\");\n        \n        Request memory request = requests[_indexRequest];\n        \n        emit ApprovalReceived(_indexRequest, request.approvals, msg.sender);\n        \n        request.approvals += 1;\n        ownersApprovals[msg.sender][_indexRequest] = true;\n        \n        if(request.approvals >= approvalLimit) {\n            request.done = true;\n            balance[request.to] = balance[request.to].add(request.amount);\n\n            (bool success, ) = request.to.call{value: request.amount}(\"\");\n            if(!success) {\n                request.done = false;\n                balance[request.to] = balance[request.to].sub(request.amount);\n            } else {\n                emit TransferFinished( _indexRequest);\n            }\n        }\n    }\n    \n    function cancelRequest(uint _indexRequest) external {\n        require(requests[_indexRequest].done == false, \"The request is already done!\");\n        require(requests[_indexRequest].from == msg.sender, \"You're not the sender of the request!\");\n        \n        uint indexLastRequest = requestList[requestList.length-1];\n        \n        requestList[_indexRequest] = indexLastRequest;\n        requestList[indexLastRequest] = _indexRequest;\n        \n        balance[requests[indexLastRequest].from] =  balance[requests[indexLastRequest].from].add(requests[indexLastRequest].amount);\n        \n        msg.sender.call{value: requests[indexLastRequest].amount}(\"\");\n        delete requests[indexLastRequest];\n        requestList.pop();\n    }\n    \n    function getRequest(uint _indexRequest) public view returns (Request memory) {\n        return requests[_indexRequest];\n    }\n    \n    function getBalance() public view returns (uint) {\n        return balance[msg.sender];\n    }\n}",
  "sourcePath": "/Users/guilhermebrandaocostaesilva/Desktop/Ethereum/multisign-wallet/contracts/multiSignWallet.sol",
  "compiler": {
    "name": "solc",
    "version": "0.8.3+commit.8d00100c.Emscripten.clang"
  },
  "schemaVersion": "3.3.4",
  "updatedAt": "2021-03-30T02:28:58.733Z",
  "devdoc": {
    "kind": "dev",
    "methods": {},
    "version": 1
  },
  "userdoc": {
    "kind": "user",
    "methods": {},
    "version": 1
  }
}